:100000000A308A004C2A00000A108A100A1182075E
:1000100028340C34013406340A108A100A1182077D
:10002000313432343334343435343634373438348C
:1000300039342A3430342334CD32EE3AA03AF33214
:10004000721D0000AB1EB11DAD1EB21DAA1EB31D58
:10005000AF1EB41D00018C31E837E931651D200069
:100060000C00D33AED303A100001A01520000C002E
:10007000CC30A039F5366110E5393A100001D232A2
:10008000733A611D2000A01620000C00CC302039EE
:10009000E539F430A032731D2000CD3A6C3A69384E
:1000A000EC343A100001201520000C00CC30A036B2
:1000B0007536F434A034731D2000C434F634F334A0
:1000C0006F373A100001A01720000C00CC3020320E
:1000D000693BE939E9376E10E5393A1000015510EE
:1000E000F7306E376110E3376E3A6937F5323F10FB
:1000F0000001D932F31E31102027EF1E32000C0010
:10010000CF352C106F37E332A030E73069372E003F
:10011000C22C451700010C00A9308400831300088D
:100120000319A0280530F800F701F70B9528F80B04
:1001300094282E30F700F70B9B289E28800B9228DE
:1001400008008316300EF039F7000F3083120805CF
:1001500077048800000008140230F700F70BAE287F
:100160000000081008000808F700080E0F39F80012
:10017000080088100F3083160805F03888008312B5
:100180000815000008140000B32078088316B0009A
:100190008312081000000814CD28CE28B320780858
:1001A0008316AF00831208100F30831608058800ED
:1001B000300EF700F030F70577082F04F8007808C4
:1001C000AF00AF1FE5288312BA282D18EA28831242
:1001D000881083162D1CEF288312881483160000C4
:1001E000831208110000081083162E0EAF000F3086
:1001F000AF052F08B0008312A12083162E080F39F7
:10020000AF00B0008312A12008000F30831608054C
:10021000880008108810081183128810081108102F
:100220000F308316A90083128C200130F100710871
:10023000033C031C272903308316B0008312A1203E
:1002400005308316A90083128C20F10A1729023089
:100250008316B0008312A120F1017108033C031C36
:100260003C2971080420F2008316AD017208AE002B
:100270008312B920F10A2D298A150A12622A8A15D9
:100280000A12652A83162A0B462949294030AB00F9
:100290004A29AB0101302902AB072B088038AC009A
:1002A000AD012C08AE008312B9200800831628087F
:1002B0000C3A831203196329063A03196F29023A8B
:1002C000031977297E298316AD010130AE00831210
:1002D000B92002308316A90083128C2086290130B0
:1002E0008316A9000230AA008312422186298316B0
:1002F000AD011030AE008312B9208629013083167B
:10030000AD002808AE008312B920862908008316A4
:1003100003178C170C140000000083120C087F399F
:100320000319C329F1000D08F2000F08F30071084A
:1003300083160313A80083125621720803178D0039
:1003400073088F0083168C170C14000000008312B2
:100350000C0D0E0D7F390319C329F1000D08F200B1
:100360000F08F300710883160313A80083125621A7
:10037000720803178D0073088F008D0A03198F0A06
:1003800003138729031703130800F101A60A26089F
:10039000213C0318472A29080319D529013A0319D2
:1003A000DB29033A0319E129E729DE3083168600A9
:1003B00083128600E729BE308316860083128600EA
:1003C000E7297E308316860083128600E729271CE2
:1003D000F32906081E391E3C031DF22927102808A0
:1003E000F100A801462A06081E391E3C0319412ABD
:1003F00006080239031DFE29F201122A06080439F3
:10040000031D052A0130F200122A06080839031DCF
:100410000C2A0230F200122A06081039031D122A93
:100420000330F2007208F3000330F400F701F80122
:10043000730803107418F707F70CF80CF418F70793
:10044000F70CF80C7419F707F70CF80CF419F70708
:10045000F70CF80C741AF707F70CF80CF41AF707F6
:10046000F70CF80C741BF707F70CF80CF41BF707E4
:10047000F70CF80C290878070C20F800A8002714BE
:10048000462AA90A2908033C0319A901A601FE303E
:10049000831686007108F8008312080083164C0842
:1004A000CE004B08D0004A08CF004D08003C03188E
:1004B0006E2A5008FA004F08840083137A188317B5
:1004C0004E080002031D692A4F08F8005008F90081
:1004D000712ACF0A0319D00ACD03552A0030F8003B
:1004E000F900831208008316A301A2013030A40092
:1004F0003130A5003230A6003330A7003430A800D8
:100500003530A9003630AA003730AB003830AC00A7
:100510003930AD006130AE006230AF006330B00002
:100520006430B1006530B2006630B3006730B400AB
:100530006830B5006930B6006A30B7006B30B8007B
:100540006C30B9006D30BA006E30BB006F30BC004B
:100550007030BD007130BE007330BF007430C00019
:100560007530C1007630C2007730C3007830C400E7
:100570007930C5007A30C600C7017208FC007108E6
:10058000FB007C08FA007B08840083137A18831729
:100590000008203C031DD02AFB0A0319FC0AC12ACB
:1005A0007C08FA007B08840083137C1883170008FA
:1005B0002D3C0319E62A7C08FA007B08840083138B
:1005C0007C18831700082B3C031DF22A7C08FA00D4
:1005D0007B08FB0A0319FC0A840083137A1883172B
:1005E0000008F32A2B30F60076082D3C0319032B64
:1005F000F51B032B750BFD2A032BF51B052B75082B
:10060000243C0318052B5B2C9B2BF5080319602B4E
:100610007508103C031D2F2B7C08FA007B08840012
:1006200083137A1883170008303C031D2F2B0130E9
:100630007B07840083137C1883170008783C031918
:100640002B2B01307B07840083137C188317000851
:10065000583C031D2F2B0230FB070318FC0A7508BA
:10066000083C031D422B7C08FA007B08840083139E
:100670007A1883170008303C031D422B0130FB071A
:100680000318FC0A7508023C031D5F2B7C08FA0066
:100690007B08840083137A1883170008303C031DFD
:1006A0005F2B01307B07840083137C1883170008BD
:1006B000623C031D5F2B0230FB070318FC0A9B2BD7
:1006C0007C08FA007B08840083137A1883170008DB
:1006D000303C03196E2B0A30F5009B2B01307B0751
:1006E000840083137C1883170008783C0319822B3D
:1006F00001307B07840083137C1883170008583C63
:10070000031D892B1030F5000230FB070318FC0A8B
:100710009B2B01307B07840083137C188317000810
:10072000623C031D992B0230F500FB070318FC0AFD
:100730009B2B0830F5007C08FE007B08FD007C0840
:10074000FA007B08840083137A1883170008303C72
:10075000031DAE2BFB0A0319FC0A9F2B7C08FA0031
:100760007B08840083137C1883170008C800403C72
:100770000318C12B48085A3C031CC12B48082038D9
:10078000C22B4808C800CB01A430CA004808CC00DE
:100790007508CD0083124E2279088316A1007808CF
:1007A000A000A008031DD72BA1080319532CFA01A0
:1007B0007508F700F71BFA03C8007A08C900230878
:1007C000CC002208CB004908CE004808CD004C08D8
:1007D0004E068039D000CC1FF22BCB09CC09CB0AB6
:1007E0000319CC0ACE1FF92BCD09CE09CD0A031966
:1007F000CE0A1030CF00F701FA01CC0CCB0C031C51
:10080000072C4D08F7070318FA0A4E08FA07FA0CE6
:10081000F70CF90CF80CCF0BFD2BD01F142CF8099A
:10082000F909F80A0319F90A7908C9007808C80013
:10083000A4302002F7002108FA000030031C013028
:10084000FA0277084807F80049080318490FFA0721
:100850007808A2007A08A300FB0A0319FC0A7C08A6
:10086000FA007B08840083137C1883170008C800F3
:10087000403C0318422C48085A3C031C422C4808B0
:100880002038432C4808C800CB01A430CA004808CF
:10089000CC007508CD0083124E2279088316A10082
:1008A0007808A000D12B7B087D02031D6E2C7C08EC
:1008B0007E02031D6E2C7308740403196A2C7308DE
:1008C0008400831374188317840A720880008403D9
:1008D000710880000030F800F900812C730874045E
:1008E00003197D2C73088400831374188317840AFA
:1008F0007C08800084037B0880002208F80023081D
:10090000F90083120800831628080319F42CB0009C
:100910002C080319F42CB0070318952C7F30B00273
:10092000031CF42C0319F42C992C8130B007031804
:10093000F42C3008F700F801F901FA012908B40095
:10094000B4172A08B3002B08B2001830B000B10168
:10095000321CC22C2F08FA07031CB42CF90A031D01
:10096000B42CF80A0319B1172E08F907031CBB2C85
:10097000F80A0319B1172D08AA00AA172A08F807C0
:100980000318B117B10DF80CF90CFA0CB40CB30C38
:10099000B20C0310B00BA72C0130F7070318F42C8E
:1009A000F81BD92CB40DFA0DF90DF80DF703031946
:1009B000F42CB41FEA2CFA0A031DEA2CF90A031DD1
:1009C000EA2CF80A031DEA2CF80CF90CFA0CF70AC9
:1009D0000319F42C2908B1002D08B106B11FF22C1F
:1009E000F817F82CF813F82CF701F801F901FA01BF
:1009F000831208008E30F70083162C08F8002B08AD
:100A0000F900FA01F808031D0F2D7908F800F90123
:100A10000830F702F808031D0F2DF701172D0310FA
:100A2000F81B162DF90DF80DF7030F2DF81383128F
:100A3000080083162B080319DF2DB7002F080319B0
:100A4000DF2DB702031C292D7F30B7070318DF2DD8
:100A50002F2D8130B702031CDF2D0319DF2D37083E
:100A6000F700F801F901FA01B6012C08B500B51735
:100A70002D08B4002E08B3001930B7003208B302B5
:100A80000318522D0130B4020318522DB502031879
:100A9000522DB6020318522DB60AB50AB40A32080E
:100AA000B307842D3108B40203186D2D0130B5024F
:100AB00003186D2DB60203186D2DB60AB50A31085C
:100AC000B4073208B307031C842DB40A031D842D18
:100AD000B50A031D842DB60A842D30088038B5026E
:100AE0000318832D0130B6020318832DB60A30088F
:100AF0008038B5073108B407031C612DB50A031D02
:100B0000612DB60A612D7A14B70B872D922D031033
:100B1000B30DB40DB50DB60D0310FA0DF90DF80DAA
:100B2000B80D3E2D381C9A2D0310F80CF90CFA0C58
:100B3000B80C9D2DF7030319DF2DB81BC62D03102C
:100B4000B30DB40DB50DB60D3208B3020318B22DB6
:100B50000130B4020318B22DB5020318B22DB6024B
:100B6000031CD52D3108B4020318BD2D0130B50288
:100B70000318BD2DB602031CD52D30088038B502F0
:100B80000318C62D0130B602031CD52DFA0A031D29
:100B9000D52DF90A031DD52DF80A031DD52DF70A09
:100BA0000319DF2DF80CF90CFA0C2C08B7003008EB
:100BB000B706B71FDD2DF817E32DF813E32DF70166
:100BC000F801F901FA01831208008030831CEB2D33
:100BD0008316B00683128316B501B6012C08B40043
:100BE0003008B4062B080319D92EB300F7002F08DC
:100BF0000319E22EB30203197E2E031C3C2E30088B
:100C0000B900B9173108B8003208B700B6010310AF
:100C1000B90CB80CB70CB60CB30B062EB41F132EC0
:100C20003514F62E351033103516AE30840083138C
:100C30000B2F3512B41B262E331C312EB90CB80CD9
:100C4000B70CB60CF70A0319F12E312EB91B342E4E
:100C50000310B60DB70DB80DB90DF7030319F12E3A
:100C6000262E35179E2E35132C08B400B41F3A2EAD
:100C7000B917EA2EB913EA2E2F08B300F7002B0894
:100C8000B3022C08B900B9172D08B8002E08B70018
:100C9000B6010310B90CB80CB70CB60CB30B482E48
:100CA000B41F552EB514F62EB5103310B516B2304C
:100CB000840083130B2FB512B41B682E331C732EC4
:100CC000B90CB80CB70CB60CF70A0319F12E732E39
:100CD000B91B762E0310B60DB70DB80DB90DF7037D
:100CE0000319F12E682EB5179E2EB5133008B400E7
:100CF000B41F7C2EB917EA2EB913EA2E3008B900BA
:100D0000B9173108B8003208B700B41F8B2EB913D9
:100D10003515F62E3511B6013310AE30840083132D
:100D20000B2FB41BB42E2C08B400331C9E2EB90C10
:100D3000B80CB70CB60CF70A0319F12EB61FAF2E7C
:100D4000B70A031DAF2EB80A031DAF2EB90A031D43
:100D5000AF2EB90CB80CB70CF70A0319F12E351BDE
:100D6000332EB51B752ED32E8030B906B91FBC2E7D
:100D7000F62E3008B400C92E2C08B400B908031DA3
:100D8000C92EB808031DC92EB708031DC92EF701C7
:100D9000EA2EB91BD32E0310B60DB70DB80DB90D41
:100DA000F70BC92EF12EB41FD72EB917EA2EB9139F
:100DB000EA2E2F08F7003008B9003108B8003208D1
:100DC000B700EA2E2B08F7002C08B9002D08B80050
:100DD0002E08B7003908F8003808F9003708FA007B
:100DE000292FF701F801F901FA01292FB601B709F6
:100DF000B809B909B609B60A031D042FB70A031DBD
:100E0000042FB80A0319B90A3518122EB518542E32
:100E100035198A2EB92E0008B707031C152FB80AFA
:100E2000031D152FB90A0319331484030008B807EA
:100E3000031C1D2FB90A0319331484030008801FF3
:100E4000803AB90703183314351A192EB51A5B2ED8
:100E5000912E83120800F701F801F901FA018316B7
:100E6000B001B101B201B3012F082E042D042C04EE
:100E700003196A2F2030B4000310A80DA90DAA0D84
:100E8000AB0DB00DB10DB20DB30D2F083302031D24
:100E9000532F2E083202031D532F2D083102031D3C
:100EA000532F2C083002031C642F2C08B0022D088D
:100EB000031C2D0FB1022E08031C2E0FB2022F08A7
:100EC000031C2F0FB3020314F70DF80DF90DFA0DE3
:0E0ED000B40B3C2FB030840083138312080053
:10100000FE01FD01FC017F30FB008316A301A2015C
:10101000A101A0017514F5107511A40171087204E5
:10102000031D1728F701F801F901FA0141292408E5
:10103000A40A710784008313721883170008F6004E
:10104000F6080319FB28751C37287608203C03197D
:101050003728751076082B3C031D3128F510F12830
:10106000372876082D3C031D3728F514F12875180C
:10107000412876082E3C031D412875194128751515
:10108000F1287518EF2876082F3C0318EF2876080A
:10109000393C031CEF283030F602751DAD287E0860
:1010A000AB007D08AA007C08A9007B08A800AF015E
:1010B000AE012030AD008230AC008A11831283244F
:1010C0008A157A08FE007908FD007808FC00770888
:1010D000FB008316AC017608AB008A118312FA2458
:1010E0008A1577088316A5007808A6007908A70056
:1010F0007A08A800AE002708AD002608AC00250835
:10110000AB007E08B2007D08B1007C08B0007B080F
:10111000AF008A11831219258A15831083162308BC
:10112000AE002208AD002108AC002008AB007A0810
:10113000B2007908B1007808B0007708AF008A11D2
:101140008312E5258A157A088316A3007908A20080
:101150007808A1007708A000EE28AB01AA01203092
:10116000A9008230A8002308AF002208AE002108A1
:10117000AD002008AC008A11831283248A157708F9
:101180008316A5007808A6007908A7007A08A800A9
:10119000AC017608AB008A118312FA248A158310F9
:1011A00083162808AE002708AD002608AC002508E5
:1011B000AB007A08B2007908B1007808B00077086F
:1011C000AF008A118312E5258A157A088316A300D9
:1011D0007908A2007808A1007708A000F128751C02
:1011E000FB282408A40A710784008313721883174C
:1011F0000008F6002028F51C1829AB01AA01803050
:10120000A9007F30A8002308AF002208AE00210803
:10121000AD002008AC008A11831283248A157A0855
:101220008316A3007908A2007808A1007708A0001F
:101230007308740403193929A40803192E29A40377
:1012400073088400831374188317240871078000BF
:10125000840A720880000318800A39297308840000
:10126000831374188317840A72088000840371083A
:1012700080002008F7002108F8002208F900230860
:10128000FA008312080004088316A0007508A20063
:10129000031967297408AB007308AA007208A90033
:1012A0007108A800AF01AE012030AD008230AC0063
:1012B0008A11831283248A157A08F4007908F300CE
:1012C0007808F2007708F1008316A20B4A29740807
:1012D000AB007308AA007208A9007108A8002808CA
:1012E000B63CA800FA012908AC00A9170310A90C04
:1012F000AA0CAB0CFA0CF90CF80CF70CA80B76291D
:10130000AC1F8D29F709F809F909FA09F70A031939
:10131000F80A0319F90A0319FA0A7A08F400790895
:10132000F3007808F2007708F100F41FA429A00365
:10133000A016F109F209F309F409F10A0319F20AF6
:101340000319F30A0319F40A3B30A7009A30A600E8
:10135000CA30A500A4010A30A20075080319A00A2A
:101360007408AB007308AA007208A9007108A800ED
:101370002708AF002608AE002508AD002408AC0001
:101380008A1183122B278A150008F100840A0008AD
:10139000F200840A0008F300840A0008F400FD301B
:1013A0008407F708031DEB29750A83162202031D23
:1013B000DB298312EB2920080319EE290F392202B9
:1013C0000319E42903182E2AA01B2E2A201BEE291C
:1013D0002030262A831220308316A005A01E002A62
:1013E000A0127508031DA0037708A0002D30A800E7
:1013F0008A11831256218A1583162008F700A0014E
:1014000075082202031D122A7708A0002E30A800BA
:101410008A11831256218A1583162008F70020307E
:10142000A00500303030A01E262AA0127508031D2A
:10143000A0037708A0002D30A8008A11831256213E
:101440008A1583162008F700A0013030F7077708C7
:10145000A8008A11831256218A1583162708AB002B
:101460002608AA002508A9002408A800AF01AE019B
:10147000AD010A30AC008A1183122B278A157A0835
:101480008316A7007908A6007808A5007708A400AD
:10149000A20BB02983120800840183131F30830537
:1014A00083161F149F141F159F1107309C00831271
:1014B000A001A101A6012710A801A901E101E201F3
:1014C0008A1105298A158A113F298A1583168113E5
:1014D0008312AA01F001EF01EE01ED01610B712A07
:1014E0005A2FE201E00101308316A900AA008A11F7
:1014F000831242218A151C3003178D0000308F00A3
:101500008A11031387218A1501308316A90002303E
:10151000AA008A11831242218A15223003178D00F6
:1015200000308F008A11031387218A150830F100DB
:10153000FA308316A9008A1183128C208A15F10BC8
:10154000982A2B3003178D0000308F008A11031367
:1015500087218A15600BAD2AB82A8A11C5218A1500
:101560007808E200E2080319B72A0130E000AA2A4D
:10157000303003178D0000308F008A11031387214C
:101580008A156208313A0319CF2A033A0319D32B7B
:10159000013A0319D72C073A0319DA2DDD2E313021
:1015A00003178D0000308F008A11031387218A15DD
:1015B000E0012A08233C03190F2B8A11C5218A1543
:1015C0007808AA00AA0803190E2B2A082A3C031D32
:1015D000F92A2E30AA003F306007840083132A08BE
:1015E0008000E00A2A088316A8008A118312562177
:1015F0008A152A08233C03190C2B3F30600784000E
:1016000083132A088000E00A2A088316A8008A119A
:10161000831256218A150E2B2330AA00D92AAA013B
:10162000E001353003178D0000308F008A1103135D
:1016300087218A152A08233C0319502B8A11C521BA
:101640008A157808AA00AA0803194F2B2A082A3CF1
:10165000031D3A2B2E30AA005330600784008313F9
:101660002A088000E00A2A088316A8008A1183123B
:1016700056218A152A08233C03194D2B5330600745
:10168000840083132A088000E00A2A088316A80031
:101690008A11831256218A154F2B2330AA001A2B48
:1016A000373003178D0000308F008A110313872114
:1016B0008A15F2013F30F100F4015D30F3000A3089
:1016C000F5008A1173228A157908E8007808E70086
:1016D000F2015330F100F4015F30F30000207A088A
:1016E000EC007908EB007808EA007708E900680860
:1016F0008316AC00831267088316AB008A1183122D
:10170000FA248A1583107A088316AE007908AD0092
:101710007808AC007708AB0083126C088316B2001F
:1017200083126B088316B10083126A088316B00017
:10173000831269088316AF008A118312E5258A1582
:101740007A08F0007908EF007808EE007708ED00DD
:10175000383003178D0000308F008A110313872162
:101760008A1501308316A9000230AA008A1183125B
:1017700042218A15893084007008F4006F08F30054
:101780006E08F2006D08F1000230F50043210830C8
:10179000F100FA308316A9008A1183128C208A1571
:1017A000F10BC92BDE2E3F3003178D0000308F0068
:1017B0008A11031387218A15E0012A08233C0319A3
:1017C000132C8A11C5218A157808AA00AA080319C2
:1017D000122C2A082A3C031DFD2B2E30AA003F3074
:1017E0006007840083132A088000E00A2A08831611
:1017F000A8008A11831256218A152A08233C03194E
:10180000102C3F306007840083132A088000E00A10
:101810002A088316A8008A11831256218A15122CD1
:101820002330AA00DD2BAA01E001433003178D000D
:1018300000308F008A11031387218A152A08233C60
:101840000319542C8A11C5218A157808AA00AA0800
:101850000319532C2A082A3C031D3E2C2E30AA00C3
:1018600053306007840083132A088000E00A2A08A6
:101870008316A8008A11831256218A152A08233C50
:101880000319512C53306007840083132A08800009
:10189000E00A2A088316A8008A11831256218A15A5
:1018A000532C2330AA001E2C453003178D00003026
:1018B0008F008A11031387218A15F2013F30F1004E
:1018C000F4015D30F3000A30F5008A1173228A15A5
:1018D0007908E8007808E700F2015330F100F401DC
:1018E0005F30F30000207A08EC007908EB007808FC
:1018F000EA007708E90068088316AC0083126708DD
:101900008316AB008A118312FA248A1583147A088D
:101910008316AE007908AD007808AC007708AB00FC
:1019200083126C088316B20083126B088316B10011
:1019300083126A088316B000831269088316AF0009
:101940008A118312E5258A157A08F0007908EF00DC
:101950007808EE007708ED00463003178D00003060
:101960008F008A11031387218A1501308316A9007D
:101970000230AA008A11831242218A15893084001C
:101980007008F4006F08F3006E08F2006D08F100B3
:101990000230F50043210830F100FA308316A90027
:1019A0008A1183128C208A15F10BCD2CDE2E4D303E
:1019B00003178D0000308F008A11031387218A15C9
:1019C000E0012A08233C0319172D8A11C5218A1525
:1019D0007808AA00AA080319162D2A082A3C031D14
:1019E000012D2E30AA003F306007840083132A089F
:1019F0008000E00A2A088316A8008A118312562163
:101A00008A152A08233C0319142D3F3060078400EF
:101A100083132A088000E00A2A088316A8008A1186
:101A2000831256218A15162D2330AA00E12CAA0113
:101A3000E001533003178D0000308F008A1103132B
:101A400087218A152A08233C0319582D8A11C5219C
:101A50008A157808AA00AA080319572D2A082A3CD3
:101A6000031D422D2E30AA005330600784008313DB
:101A70002A088000E00A2A088316A8008A11831227
:101A800056218A152A08233C0319552D5330600727
:101A9000840083132A088000E00A2A088316A8001D
:101AA0008A11831256218A15572D2330AA00222D20
:101AB000553003178D0000308F008A1103138721E2
:101AC0008A15F2013F30F100F4015D30F3000A3075
:101AD000F5008A1173228A157908E8007808E70072
:101AE000F2015330F100F4015F30F30000207A0876
:101AF000EC007908EB007808EA007708E90068084C
:101B00008316AC00831267088316AB008A11831218
:101B1000FA248A157A088316AB007908AA00780897
:101B2000A9007708A80083126C088316AF008312FF
:101B30006B088316AE0083126A088316AD00831209
:101B400069088316AC008A11831283248A157A08E7
:101B5000F0007908EF007808EE007708ED005630C5
:101B600003178D0000308F008A11031387218A1517
:101B700001308316A9000230AA008A118312422183
:101B80008A15893084007008F4006F08F3006E082D
:101B9000F2006D08F1000230F50043210830F10039
:101BA000FA308316A9008A1183128C208A15F10B52
:101BB000D02DDE2E5D3003178D0000308F008A118E
:101BC000031387218A15E0012A08233C03191A2EE2
:101BD0008A11C5218A157808AA00AA080319192EA6
:101BE0002A082A3C031D042E2E30AA003F3060072D
:101BF000840083132A088000E00A2A088316A800BC
:101C00008A11831256218A152A08233C0319172E9C
:101C10003F306007840083132A088000E00A2A0806
:101C20008316A8008A11831256218A15192E233093
:101C3000AA00E42DAA01E001633003178D000030F3
:101C40008F008A11031387218A152A08233C031960
:101C50005B2E8A11C5218A157808AA00AA080319E3
:101C60005A2E2A082A3C031D452E2E30AA00533036
:101C70006007840083132A088000E00A2A0883167C
:101C8000A8008A11831256218A152A08233C0319B9
:101C9000582E53306007840083132A088000E00A1E
:101CA0002A088316A8008A11831256218A155A2EF3
:101CB0002330AA00252E653003178D0000308F00D9
:101CC0008A11031387218A15F2013F30F100F401D4
:101CD0005D30F3000A30F5008A1173228A15790805
:101CE000E8007808E700F2015330F100F4015F30BA
:101CF000F30000207A08EC007908EB007808EA008D
:101D00007708E90068088316AC0083126708831619
:101D1000AB008A118312FA248A157A088316AE0062
:101D20007908AD007808AC007708AB0083126C0826
:101D30008316B20083126B088316B10083126A08FF
:101D40008316B000831269088316AF008A118312CC
:101D500019258A157A08F0007908EF007808EE0056
:101D60007708ED00663003178D0000308F008A1170
:101D7000031387218A1501308316A9000230AA00B7
:101D80008A11831242218A15893084007008F40078
:101D90006F08F3006E08F2006D08F1000230F500E4
:101DA00043210830F100FA308316A9008A1183120A
:101DB0008C208A15F10BD32EDE2EDE2EE001AA0137
:101DC00001308316A900AA008A11831242218A15C4
:101DD0006F3003178D0000308F008A1103138721A5
:101DE0008A1501308316A9000230AA008A118312D5
:101DF00042218A15793003178D0000308F008A1137
:101E0000031387218A15600B062F112F8A11C52114
:101E10008A157808E200E2080319102F0130E0006B
:101E2000032F7F3003178D0000308F008A110313BA
:101E300087218A156208313C031D332F8030031738
:101E40008D0000308F008A11031387218A1504301A
:101E5000F100FA308316A9008A1183128C208A15AA
:101E6000F10B292F492F883003178D0000308F0088
:101E70008A11031387218A150430F100FA30831682
:101E8000A9008A1183128C208A15F10B3E2F013094
:101E9000E1008B3003178D0000308F008A1103138F
:101EA00087218A15E801E701EC01EB01EA01E9016C
:061EB000E2016E2A63004E
:02400E00733FFE
:00000001FF
;PIC16F877A
;CRC=ED3D  CREATED="10-jul.-19 13:58"
